:100000000C942A000C943C000C943C000C943C0092
:100010000C943C000C943C000C943C000C943C0070
:100020000C943C000C943C000C949F050C946C05C3
:100030000C943C000C943C000C943C000C943C0050
:100040000C943C000C943C000C943C000C943C0040
:100050000C943C0011241FBECFE5D8E0DEBFCDBF1D
:1000600010E0A0E6B0E001C01D92AF36B107E1F7A5
:100070000E943E000C94DA050C940000DF93CF93AD
:10008000CDB7DEB781E064E041E00E947F0081E00F
:1000900064E041E00E94780188E590E00E94E90474
:1000A0000E94CD040E94090586EE0E94FB04FFCF4A
:1000B000DF93CF93CDB7DEB7809160008F5F8093E1
:1000C0006000809160008A3049F481E064E040E0A3
:1000D0000E9478018CEC0E94FB040EC080916000AD
:1000E0008A3151F481E064E041E00E94780186EEBB
:1000F0000E94FB0410926000CF91DF910895DF937E
:10010000CF9300D000D000D0CDB7DEB78A836B8309
:100110004C8384E089838A81282F30E03E832D83BD
:100120008D819E818130910509F447C02D813E81EA
:10013000223031052CF48D819E81009771F0CCC066
:100140002D813E812230310509F467C08D819E8169
:100150008330910509F491C0BFC08C818823A9F434
:10016000AAE3B0E0EAE3F0E08081482F8B81282FFA
:1001700030E081E090E0022E02C0880F991F0A94BF
:10018000E2F7809584238C93A9C08C81813009F09B
:10019000A5C0AAE3B0E0EAE3F0E08081482F8B81BC
:1001A000282F30E081E090E0022E02C0880F991FD6
:1001B0000A94E2F7842B8C9391C08C818823A9F454
:1001C000A7E3B0E0E7E3F0E08081482F8B81282FA0
:1001D00030E081E090E0022E02C0880F991F0A945F
:1001E000E2F7809584238C9379C08C81813009F06B
:1001F00075C0A7E3B0E0E7E3F0E08081482F8B8192
:10020000282F30E081E090E0022E02C0880F991F75
:100210000A94E2F7842B8C9361C08C818823A9F423
:10022000A4E3B0E0E4E3F0E08081482F8B81282F45
:1002300030E081E090E0022E02C0880F991F0A94FE
:10024000E2F7809584238C9349C08C81813009F03A
:1002500045C0A4E3B0E0E4E3F0E08081482F8B8167
:10026000282F30E081E090E0022E02C0880F991F15
:100270000A94E2F7842B8C9331C08C818823A9F4F3
:10028000A1E3B0E0E1E3F0E08081482F8B81282FEB
:1002900030E081E090E0022E02C0880F991F0A949E
:1002A000E2F7809584238C9319C08C818130B1F45E
:1002B000A1E3B0E0E1E3F0E08081482F8B81282FBB
:1002C00030E081E090E0022E02C0880F991F0A946E
:1002D000E2F7842B8C9302C085E08983898126967E
:1002E0000FB6F894DEBF0FBECDBFCF91DF9108955A
:1002F000DF93CF9300D000D000D0CDB7DEB78A8394
:100300006B834C8384E089838A81282F30E03E838D
:100310002D838D819E818130910509F447C02D8107
:100320003E81223031052CF48D819E81009771F041
:10033000CCC02D813E812230310509F467C08D810A
:100340009E818330910509F491C0BFC08C818823C0
:10035000A9F4ABE3B0E0EBE3F0E08081482F8B81C0
:10036000282F30E081E090E0022E02C0880F991F14
:100370000A94E2F7809584238C93A9C08C81813004
:1003800009F0A5C0ABE3B0E0EBE3F0E08081482FDB
:100390008B81282F30E081E090E0022E02C0880F90
:1003A000991F0A94E2F7842B8C9391C08C81882347
:1003B000A9F4A8E3B0E0E8E3F0E08081482F8B8166
:1003C000282F30E081E090E0022E02C0880F991FB4
:1003D0000A94E2F7809584238C9379C08C818130D4
:1003E00009F075C0A8E3B0E0E8E3F0E08081482FB1
:1003F0008B81282F30E081E090E0022E02C0880F30
:10040000991F0A94E2F7842B8C9361C08C81882316
:10041000A9F4A5E3B0E0E5E3F0E08081482F8B810B
:10042000282F30E081E090E0022E02C0880F991F53
:100430000A94E2F7809584238C9349C08C818130A3
:1004400009F045C0A5E3B0E0E5E3F0E08081482F86
:100450008B81282F30E081E090E0022E02C0880FCF
:10046000991F0A94E2F7842B8C9331C08C818823E6
:10047000A9F4A2E3B0E0E2E3F0E08081482F8B81B1
:10048000282F30E081E090E0022E02C0880F991FF3
:100490000A94E2F7809584238C9319C08C81813073
:1004A000B1F4A2E3B0E0E2E3F0E08081482F8B8179
:1004B000282F30E081E090E0022E02C0880F991FC3
:1004C0000A94E2F7842B8C9302C085E089838981AA
:1004D00026960FB6F894DEBF0FBECDBFCF91DF9149
:1004E0000895DF93CF9300D000D00F92CDB7DEB741
:1004F0008A836B8384E089838A81282F30E03D835F
:100500002C838C819D818130910549F12C813D8125
:10051000223031052CF48C819D81009761F05BC005
:100520002C813D812230310571F18C819D81833098
:100530009105E9F150C0ABE3B0E0EBE3F0E080817E
:10054000482F8B81282F30E081E090E0022E02C0FE
:10055000880F991F0A94E2F784278C933EC0A8E382
:10056000B0E0E8E3F0E08081482F8B81282F30E075
:1005700081E090E0022E02C0880F991F0A94E2F7F2
:1005800084278C932AC0A5E3B0E0E5E3F0E0808106
:10059000482F8B81282F30E081E090E0022E02C0AE
:1005A000880F991F0A94E2F784278C9316C0A2E360
:1005B000B0E0E2E3F0E08081482F8B81282F30E02B
:1005C00081E090E0022E02C0880F991F0A94E2F7A2
:1005D00084278C9302C085E0898389810F900F90D6
:1005E0000F900F900F90CF91DF910895DF93CF93ED
:1005F00000D000D00F92CDB7DEB78A836B8384E042
:1006000089838A81282F30E03D832C838C819D81D2
:100610008130910549F12C813D81223031052CF446
:100620008C819D81009761F05BC02C813D812230DF
:10063000310571F18C819D8183309105E9F150C0C4
:10064000AAE3B0E0EAE3F0E08081482F8B81282F15
:1006500030E081E090E0022E02C0880F991F0A94DA
:10066000E2F784278C933EC0A7E3B0E0E7E3F0E035
:100670008081482F8B81282F30E081E090E0022E8E
:1006800002C0880F991F0A94E2F784278C932AC02E
:10069000A4E3B0E0E4E3F0E08081482F8B81282FD1
:1006A00030E081E090E0022E02C0880F991F0A948A
:1006B000E2F784278C9316C0A1E3B0E0E1E3F0E019
:1006C0008081482F8B81282F30E081E090E0022E3E
:1006D00002C0880F991F0A94E2F784278C9302C006
:1006E00085E0898389810F900F900F900F900F9074
:1006F000CF91DF910895DF93CF9300D000D00F9278
:10070000CDB7DEB78A836B8384E089838A81282F03
:1007100030E03D832C838C819D8181309105D1F027
:100720002C813D81223031052CF48C819D810097F4
:1007300061F01FC02C813D812230310581F08C8118
:100740009D818330910581F014C0EAE3F0E08B8154
:10075000808311C0E7E3F0E08B8180830CC0E4E389
:10076000F0E08B81808307C0E1E3F0E08B81808340
:1007700002C085E0898389810F900F900F900F90C0
:100780000F90CF91DF910895DF93CF9300D000D0E9
:100790000F92CDB7DEB78A836B8384E089838A8129
:1007A000282F30E03D832C838C819D818130910501
:1007B000D1F02C813D81223031052CF48C819D813A
:1007C000009761F01FC02C813D812230310581F0FE
:1007D0008C819D818330910581F014C0EBE3F0E0C2
:1007E0008B81808311C0E8E3F0E08B8180830CC0B3
:1007F000E5E3F0E08B81808307C0E2E3F0E08B81EA
:10080000808302C085E0898389810F900F900F90CB
:100810000F900F90CF91DF910895DF93CF9300D089
:1008200000D00F92CDB7DEB78A836B838A81282FE1
:1008300030E03D832C834C815D814130510541F195
:100840008C819D818230910534F42C813D8121156C
:10085000310561F053C04C815D814230510551F149
:100860008C819D8183309105B9F148C0E9E3F0E0C6
:100870008081282F30E08B81882F90E0A90102C071
:10088000559547958A95E2F7CA018170898338C0EA
:10089000E6E3F0E08081282F30E08B81882F90E024
:1008A000A90102C0559547958A95E2F7CA01817062
:1008B000898326C0E3E3F0E08081282F30E08B813C
:1008C000882F90E0A90102C0559547958A95E2F7D7
:1008D000CA018170898314C0E0E3F0E08081282F91
:1008E00030E08B81882F90E0A90102C05595479593
:1008F0008A95E2F7CA018170898302C085E0898305
:1009000089810F900F900F900F900F90CF91DF91F2
:100910000895DF93CF9300D000D0CDB7DEB78A83A0
:100920008A81282F30E03C832B838B819C8181300E
:100930009105D1F02B813C81223031052CF48B8143
:100940009C81009761F01FC02B813C8122303105D2
:1009500081F08B819C818330910581F014C0E9E3A3
:10096000F0E08081898311C0E6E3F0E08081898333
:100970000CC0E3E3F0E08081898307C0E0E3F0E0AE
:100980008081898302C085E0898389810F900F90DF
:100990000F900F90CF91DF910895DF93CF93CDB754
:1009A000DEB7AFE5B0E0EFE5F0E0808180688C93E2
:1009B000CF91DF910895DF93CF93CDB7DEB7AFE549
:1009C000B0E0EFE5F0E080818F778C93CF91DF91FD
:1009D0000895DF93CF9300D0CDB7DEB79A83898394
:1009E00089819A8190936D0080936C000F900F9095
:1009F000CF91DF910895DF93CF930F92CDB7DEB7FC
:100A00008983E2E5F0E0898180830F90CF91DF91C7
:100A10000895DF93CF93CDB7DEB7A3E5B0E0E3E56C
:100A2000F0E08081877F8C93A3E5B0E0E3E5F0E020
:100A300080818F7B8C93A3E5B0E0E3E5F0E08081DB
:100A400081608C93A3E5B0E0E3E5F0E080818D7FE9
:100A50008C93A3E5B0E0E3E5F0E0808184608C93C3
:100A6000A9E5B0E0E9E5F0E0808181608C93CF9169
:100A7000DF910895DF93CF930F92CDB7DEB78983CF
:100A8000ECE5F0E0898180830F90CF91DF910895AC
:100A9000DF93CF9300D0CDB7DEB78A8319820EC023
:100AA000A8E5B0E0E8E5F0E0808181608C93898181
:100AB0008F5F898399818A81981749F0E8E5F0E092
:100AC0008081882F90E081709070009749F30F909B
:100AD0000F90CF91DF9108951F920F920FB60F9252
:100AE00011242F933F934F935F936F937F938F9333
:100AF0009F93AF93BF93EF93FF93DF93CF93CDB7C4
:100B0000DEB780916C0090916D00009729F0E09124
:100B10006C00F0916D000995CF91DF91FF91EF91FD
:100B2000BF91AF919F918F917F916F915F914F9105
:100B30003F912F910F900FBE0F901F9018951F920D
:100B40000F920FB60F9211242F933F934F935F9301
:100B50006F937F938F939F93AF93BF93EF93FF9385
:100B6000DF93CF93CDB7DEB780916E008F5F809318
:100B70006E0080916E008B3751F4E2E5F0E081E683
:100B8000808381E060E00E94710210926E00CF913C
:100B9000DF91FF91EF91BF91AF919F918F917F91E5
:100BA0006F915F914F913F912F910F900FBE0F90DA
:080BB0001F901895F894FFCF87
:00000001FF
